:030000000208BE35
:0C08BE00787FE4F6D8FD7581130209056F
:100800000000802000A0E0A9F099FCC32C9C00808F
:10081000044008026CC360810002600000000042D6
:10082000907E8060603CC038F0203418F01C80302E
:10083000F03CF038008100822440600848024031DA
:1008400050BCF034C0B9101C80B9301C3014D01C1E
:10085000F0240099802C3444100C98649C24903C23
:100860007034943C7434F0180091902C1046942607
:100870000C42F028005A101C0C00803804020008BA
:100880000800200D340C600CC02A200E6041C068A6
:1008900030050001008604C11004E0052005E00CCD
:1008A0003804C06020044408300C800C0006840624
:0E08B0000C42C0A8200A281A00814458604259
:0D09EC0001080008092020202020202020E4
:1009C80053890F438920E4F58DF58BD2ABD2AFD292
:0209D8008E226D
:03001B0002094A8D
:10094A00C0E0C083C082C0D075D000C000C00730EC
:02095A00815DBD
:10095C00AF0874092FF8E6F511C394204007E51190
:10096C00D3947E40087512007513008016E511258E
:10097C00E024C0F582E43407F583E493F5127401A6
:10098C0093F513D282759000E512FFE5B054034F36
:10099C00F5B08513A0AF08A8077401088002C33313
:0B09AC00D8FCF590E508045407F5089E
:1009B7008002C282D007D000D0D0D082D083D0E0CE
:0109C70032FD
:1009DA00E4F580F590F5A0F5B0D2811209C8D2806D
:0209EA0080FE8D
:1008CA000209DAE493A3F8E493A34003F68001F261
:1008DA0008DFF48029E493A3F85407240CC8C3332F
:1008EA00C4540F4420C8834004F456800146F6DFFE
:1008FA00E4800B01020408102040809009ECE47E99
:10090A00019360BCA3FF543F30E509541FFEE493F2
:10091A00A360010ECF54C025E060A840B8E493A3B9
:10092A00FAE493A3F8E493A3C8C582C8CAC583CAE4
:10093A00F0A3C8C582C8CAC583CADFE9DEE780BE9C
:0109F90000FD
:00000001FF
