:030000000208BE35
:0C08BE00787FE4F6D8FD7581130209056F
:100800000000008000A0E0A9F0999042B05A00805A
:10081000044008026C426081000260000400004253
:10082000907E8060603CC038F020F018F01C803072
:10083000F03CF03820082002244060084802403193
:1008400050BCF034C0B9101C80B9301C3014D01C1E
:10085000F0240099802C3444100C98649C24903C23
:100860007034943C7434E8180091902C104694260F
:100870000C420841005A101C0C0080381800000877
:100880000800200D340C600CC02A200E6041C068A6
:1008900030050001008604C11004E0052005E00CCD
:1008A0003804C06020044408300C800C0006840624
:0E08B0000C42C0A8200A281A00814458188063
:0D0A4500010800080920202020202020208A
:100A33005389F0438902E4F58CF58AD2A9D2AFD267
:020A43008C2203
:03000B0002094A9D
:10094A00C0E0C083C082C0D075D000C000C00730EC
:02095A008159C1
:10095C00AF0874092FF8E6F511C394204007E51190
:10096C00D3947E40087512007513008016E511258E
:10097C00E024C0F582E43407F583E493F5127401A6
:10098C0093F513D282759000E5124403F5B08513EC
:10099C00A0AF08A8077401088002C333D8FCF590F7
:0709AC00E508045407F508FB
:1009B3008002C282D007D000D0D0D082D083D0E0D2
:0109C3003201
:100A040075985053890F43892053877F758DFD75E1
:090A14008BFDD28ED2ACD2AF22D0
:030023000209C40B
:0F09C400C0E0C0D075D000C000C005C006C0079D
:1009D30030981CC298AF99C2A9E4FE740A2EF8E6B7
:1009E300FD74092EF8A6050EBE07F08F10D2A930AC
:0409F3009902C2990A
:0D09F700D007D006D005D000D0D0D0E0321F
:100A1D00E4F580F590F5A075B003D281120A33127A
:060A2D000A04D28080FEE5
:1008CA00020A1DE493A3F8E493A34003F68001F21D
:1008DA0008DFF48029E493A3F85407240CC8C3332F
:1008EA00C4540F4420C8834004F456800146F6DFFE
:1008FA00E4800B0102040810204080900A45E47E3F
:10090A00019360BCA3FF543F30E509541FFEE493F2
:10091A00A360010ECF54C025E060A840B8E493A3B9
:10092A00FAE493A3F8E493A3C8C582C8CAC583CAE4
:10093A00F0A3C8C582C8CAC583CADFE9DEE780BE9C
:010A520000A3
:00000001FF
