:030000000208BE35
:0C08BE00787FE4F6D8FD75811002090572
:1008000000000000000000000000000000000000E8
:1008100000000000000000000000000000000000D8
:1008200000000000000000000000000000000000C8
:1008300000000000000000000000000000000000B8
:1008400000000000000000000000000000000000A8
:100850000000000000000000000000000000000098
:100860000000000000000000000000000000000088
:100870000000000000000000000000000000000078
:100880000000000000000000000000000000000068
:100890000000000000000000000000000000000058
:1008A0000000000000000000000000000000000048
:0E08B00000000000000000000000000000003A
:0D09D90001080008090000000000000000F7
:1009B50053890F438920E4F58DF58BD2ABD2AFD2A5
:0209C5008E2280
:03001B0002094A8D
:10094A00C0E0C083C082C0D075D000C000C00730EC
:10095A00814AD282759000AF0874092FF8E625E023
:10096A002400F582E43408F583E493F5B0AF087403
:10097A00092FF8E625E02400F582E43408F58374AB
:10098A000193F5A0AF08A8077401088002C333D801
:10099A00FCF590E508045407F5088002C282D007E6
:0B09AA00D000D0D0D082D083D0E0324B
:1009C700E4F580F590F5A0F5B0D2811209B5D28093
:0209D70080FEA0
:1008CA000209C7E493A3F8E493A34003F68001F274
:1008DA0008DFF48029E493A3F85407240CC8C3332F
:1008EA00C4540F4420C8834004F456800146F6DFFE
:1008FA00E4800B01020408102040809009D9E47EAC
:10090A00019360BCA3FF543F30E509541FFEE493F2
:10091A00A360010ECF54C025E060A840B8E493A3B9
:10092A00FAE493A3F8E493A3C8C582C8CAC583CAE4
:10093A00F0A3C8C582C8CAC583CADFE9DEE780BE9C
:0109E6000010
:00000001FF
